{
  "contractName": "soulofEnemy",
  "abi": [
    {
      "inputs": [],
      "stateMutability": "nonpayable",
      "type": "constructor"
    },
    {
      "anonymous": false,
      "inputs": [
        {
          "indexed": true,
          "internalType": "address",
          "name": "owner",
          "type": "address"
        },
        {
          "indexed": true,
          "internalType": "address",
          "name": "spender",
          "type": "address"
        },
        {
          "indexed": false,
          "internalType": "uint256",
          "name": "value",
          "type": "uint256"
        }
      ],
      "name": "Approval",
      "type": "event"
    },
    {
      "anonymous": false,
      "inputs": [
        {
          "indexed": true,
          "internalType": "address",
          "name": "from",
          "type": "address"
        },
        {
          "indexed": true,
          "internalType": "address",
          "name": "to",
          "type": "address"
        },
        {
          "indexed": false,
          "internalType": "uint256",
          "name": "value",
          "type": "uint256"
        }
      ],
      "name": "Transfer",
      "type": "event"
    },
    {
      "inputs": [
        {
          "internalType": "address",
          "name": "",
          "type": "address"
        },
        {
          "internalType": "address",
          "name": "",
          "type": "address"
        }
      ],
      "name": "allowances",
      "outputs": [
        {
          "internalType": "uint256",
          "name": "",
          "type": "uint256"
        }
      ],
      "stateMutability": "view",
      "type": "function",
      "constant": true
    },
    {
      "inputs": [
        {
          "internalType": "address",
          "name": "",
          "type": "address"
        }
      ],
      "name": "balances",
      "outputs": [
        {
          "internalType": "uint256",
          "name": "",
          "type": "uint256"
        }
      ],
      "stateMutability": "view",
      "type": "function",
      "constant": true
    },
    {
      "inputs": [],
      "name": "decimals",
      "outputs": [
        {
          "internalType": "uint256",
          "name": "",
          "type": "uint256"
        }
      ],
      "stateMutability": "view",
      "type": "function",
      "constant": true
    },
    {
      "inputs": [],
      "name": "name",
      "outputs": [
        {
          "internalType": "string",
          "name": "",
          "type": "string"
        }
      ],
      "stateMutability": "view",
      "type": "function",
      "constant": true
    },
    {
      "inputs": [],
      "name": "symbol",
      "outputs": [
        {
          "internalType": "string",
          "name": "",
          "type": "string"
        }
      ],
      "stateMutability": "view",
      "type": "function",
      "constant": true
    },
    {
      "inputs": [],
      "name": "totalSupply",
      "outputs": [
        {
          "internalType": "uint256",
          "name": "",
          "type": "uint256"
        }
      ],
      "stateMutability": "view",
      "type": "function",
      "constant": true
    },
    {
      "inputs": [
        {
          "internalType": "address",
          "name": "owner",
          "type": "address"
        }
      ],
      "name": "balanceOf",
      "outputs": [
        {
          "internalType": "uint256",
          "name": "",
          "type": "uint256"
        }
      ],
      "stateMutability": "view",
      "type": "function",
      "constant": true
    },
    {
      "inputs": [
        {
          "internalType": "address",
          "name": "to",
          "type": "address"
        },
        {
          "internalType": "uint256",
          "name": "value",
          "type": "uint256"
        }
      ],
      "name": "transfer",
      "outputs": [
        {
          "internalType": "bool",
          "name": "sucess",
          "type": "bool"
        }
      ],
      "stateMutability": "nonpayable",
      "type": "function"
    },
    {
      "inputs": [
        {
          "internalType": "address",
          "name": "spender",
          "type": "address"
        },
        {
          "internalType": "uint256",
          "name": "value",
          "type": "uint256"
        }
      ],
      "name": "approve",
      "outputs": [
        {
          "internalType": "bool",
          "name": "sucess",
          "type": "bool"
        }
      ],
      "stateMutability": "nonpayable",
      "type": "function"
    },
    {
      "inputs": [
        {
          "internalType": "address",
          "name": "from",
          "type": "address"
        },
        {
          "internalType": "address",
          "name": "to",
          "type": "address"
        },
        {
          "internalType": "uint256",
          "name": "value",
          "type": "uint256"
        }
      ],
      "name": "transferFrom",
      "outputs": [
        {
          "internalType": "bool",
          "name": "sucess",
          "type": "bool"
        }
      ],
      "stateMutability": "nonpayable",
      "type": "function"
    }
  ],
  "bytecode": "0x60806040526b01006d0dac6c27c0f60000006002556040518060400160405280600d81526020017f536f756c206f6620456e656d790000000000000000000000000000000000000081525060039080519060200190620000619291906200010e565b506040518060400160405280600481526020017f534f46590000000000000000000000000000000000000000000000000000000081525060049080519060200190620000af9291906200010e565b506012600555348015620000c257600080fd5b506002546000803373ffffffffffffffffffffffffffffffffffffffff1673ffffffffffffffffffffffffffffffffffffffff1681526020019081526020016000208190555062000223565b8280546200011c90620001ed565b90600052602060002090601f0160209004810192826200014057600085556200018c565b82601f106200015b57805160ff19168380011785556200018c565b828001600101855582156200018c579182015b828111156200018b5782518255916020019190600101906200016e565b5b5090506200019b91906200019f565b5090565b5b80821115620001ba576000816000905550600101620001a0565b5090565b7f4e487b7100000000000000000000000000000000000000000000000000000000600052602260045260246000fd5b600060028204905060018216806200020657607f821691505b602082108114156200021d576200021c620001be565b5b50919050565b610cf580620002336000396000f3fe608060405234801561001057600080fd5b506004361061009e5760003560e01c8063313ce56711610066578063313ce5671461016f57806355b6ed5c1461018d57806370a08231146101bd57806395d89b41146101ed578063a9059cbb1461020b5761009e565b806306fdde03146100a3578063095ea7b3146100c157806318160ddd146100f157806323b872dd1461010f57806327e235e31461013f575b600080fd5b6100ab61023b565b6040516100b8919061091e565b60405180910390f35b6100db60048036038101906100d691906109d9565b6102c9565b6040516100e89190610a34565b60405180910390f35b6100f961037d565b6040516101069190610a5e565b60405180910390f35b61012960048036038101906101249190610a79565b610383565b6040516101369190610a34565b60405180910390f35b61015960048036038101906101549190610acc565b610606565b6040516101669190610a5e565b60405180910390f35b61017761061e565b6040516101849190610a5e565b60405180910390f35b6101a760048036038101906101a29190610af9565b610624565b6040516101b49190610a5e565b60405180910390f35b6101d760048036038101906101d29190610acc565b610649565b6040516101e49190610a5e565b60405180910390f35b6101f5610691565b604051610202919061091e565b60405180910390f35b610225600480360381019061022091906109d9565b61071f565b6040516102329190610a34565b60405180910390f35b6003805461024890610b68565b80601f016020809104026020016040519081016040528092919081815260200182805461027490610b68565b80156102c15780601f10610296576101008083540402835291602001916102c1565b820191906000526020600020905b8154815290600101906020018083116102a457829003601f168201915b505050505081565b6000816000808573ffffffffffffffffffffffffffffffffffffffff1673ffffffffffffffffffffffffffffffffffffffff168152602001908152602001600020819055508273ffffffffffffffffffffffffffffffffffffffff163373ffffffffffffffffffffffffffffffffffffffff167f8c5be1e5ebec7d5bd14f71427d1e84f3dd0314c0f7b2291e5b200ac8c7c3b9258460405161036b9190610a5e565b60405180910390a36001905092915050565b60025481565b60008060008573ffffffffffffffffffffffffffffffffffffffff1673ffffffffffffffffffffffffffffffffffffffff168152602001908152602001600020548211156103d057600080fd5b600160008573ffffffffffffffffffffffffffffffffffffffff1673ffffffffffffffffffffffffffffffffffffffff16815260200190815260200160002060003373ffffffffffffffffffffffffffffffffffffffff1673ffffffffffffffffffffffffffffffffffffffff1681526020019081526020016000205482111561045957600080fd5b816000808673ffffffffffffffffffffffffffffffffffffffff1673ffffffffffffffffffffffffffffffffffffffff16815260200190815260200160002060008282546104a79190610bc9565b92505081905550816000808573ffffffffffffffffffffffffffffffffffffffff1673ffffffffffffffffffffffffffffffffffffffff16815260200190815260200160002060008282546104fc9190610bfd565b9250508190555081600160008673ffffffffffffffffffffffffffffffffffffffff1673ffffffffffffffffffffffffffffffffffffffff16815260200190815260200160002060003373ffffffffffffffffffffffffffffffffffffffff1673ffffffffffffffffffffffffffffffffffffffff168152602001908152602001600020600082825461058f9190610bc9565b925050819055508273ffffffffffffffffffffffffffffffffffffffff168473ffffffffffffffffffffffffffffffffffffffff167fddf252ad1be2c89b69c2b068fc378daa952ba7f163c4a11628f55a4df523b3ef846040516105f39190610a5e565b60405180910390a3600190509392505050565b60006020528060005260406000206000915090505481565b60055481565b6001602052816000526040600020602052806000526040600020600091509150505481565b60008060008373ffffffffffffffffffffffffffffffffffffffff1673ffffffffffffffffffffffffffffffffffffffff168152602001908152602001600020549050919050565b6004805461069e90610b68565b80601f01602080910402602001604051908101604052809291908181526020018280546106ca90610b68565b80156107175780601f106106ec57610100808354040283529160200191610717565b820191906000526020600020905b8154815290600101906020018083116106fa57829003601f168201915b505050505081565b60008161072b33610649565b101561076c576040517f08c379a000000000000000000000000000000000000000000000000000000000815260040161076390610c9f565b60405180910390fd5b816000808573ffffffffffffffffffffffffffffffffffffffff1673ffffffffffffffffffffffffffffffffffffffff16815260200190815260200160002060008282546107ba9190610bfd565b92505081905550816000803373ffffffffffffffffffffffffffffffffffffffff1673ffffffffffffffffffffffffffffffffffffffff168152602001908152602001600020600082825461080f9190610bc9565b925050819055508273ffffffffffffffffffffffffffffffffffffffff163373ffffffffffffffffffffffffffffffffffffffff167fddf252ad1be2c89b69c2b068fc378daa952ba7f163c4a11628f55a4df523b3ef846040516108739190610a5e565b60405180910390a36001905092915050565b600081519050919050565b600082825260208201905092915050565b60005b838110156108bf5780820151818401526020810190506108a4565b838111156108ce576000848401525b50505050565b6000601f19601f8301169050919050565b60006108f082610885565b6108fa8185610890565b935061090a8185602086016108a1565b610913816108d4565b840191505092915050565b6000602082019050818103600083015261093881846108e5565b905092915050565b600080fd5b600073ffffffffffffffffffffffffffffffffffffffff82169050919050565b600061097082610945565b9050919050565b61098081610965565b811461098b57600080fd5b50565b60008135905061099d81610977565b92915050565b6000819050919050565b6109b6816109a3565b81146109c157600080fd5b50565b6000813590506109d3816109ad565b92915050565b600080604083850312156109f0576109ef610940565b5b60006109fe8582860161098e565b9250506020610a0f858286016109c4565b9150509250929050565b60008115159050919050565b610a2e81610a19565b82525050565b6000602082019050610a496000830184610a25565b92915050565b610a58816109a3565b82525050565b6000602082019050610a736000830184610a4f565b92915050565b600080600060608486031215610a9257610a91610940565b5b6000610aa08682870161098e565b9350506020610ab18682870161098e565b9250506040610ac2868287016109c4565b9150509250925092565b600060208284031215610ae257610ae1610940565b5b6000610af08482850161098e565b91505092915050565b60008060408385031215610b1057610b0f610940565b5b6000610b1e8582860161098e565b9250506020610b2f8582860161098e565b9150509250929050565b7f4e487b7100000000000000000000000000000000000000000000000000000000600052602260045260246000fd5b60006002820490506001821680610b8057607f821691505b60208210811415610b9457610b93610b39565b5b50919050565b7f4e487b7100000000000000000000000000000000000000000000000000000000600052601160045260246000fd5b6000610bd4826109a3565b9150610bdf836109a3565b925082821015610bf257610bf1610b9a565b5b828203905092915050565b6000610c08826109a3565b9150610c13836109a3565b9250827fffffffffffffffffffffffffffffffffffffffffffffffffffffffffffffffff03821115610c4857610c47610b9a565b5b828201905092915050565b7f536f756c206f6620456e656d7920696e737566696369656e7465730000000000600082015250565b6000610c89601b83610890565b9150610c9482610c53565b602082019050919050565b60006020820190508181036000830152610cb881610c7c565b905091905056fea264697066735822122045d4d5d1612cd47570b27acf4875e9d3ae470685f57e231893026c8ee7fa0b8364736f6c634300080a0033",
  "immutableReferences": {},
  "source": "// SPDX-License-Identifier: MIT\npragma solidity ^0.8.7;\n\ncontract soulofEnemy {\n    // Endereo com Quantidade de Token que ele tem : \n    // Variavel Publica : balance - Este endero tem est quantidade.\n    mapping(address => uint256) public balances;\n    mapping(address => mapping(address => uint256)) public allowances;\n\n    // Burn e Mint Suply -> \n    // Supply no pode mudar\n\n    uint public totalSupply = 310000000 * 10 ** 18;\n    string public name = \"Soul of Enemy\";\n    string public symbol = \"SOFY\";\n    uint public decimals = 18;\n\n    event Transfer(address indexed from, address indexed to, uint value);\n\n    event Approval(address indexed owner, address indexed spender, uint value);\n\n    \n    constructor () {\n        balances[msg.sender] = totalSupply;\n\n\n    }\n\n\n\n        function balanceOf(address owner) public view returns (uint) {\n            return balances[owner];\n        }\n\n        function transfer(address to, uint value) public returns(bool sucess) {\n            require(balanceOf(msg.sender) >= value, 'Soul of Enemy insuficientes');\n            balances[to] += value;\n            balances[msg.sender] -= value;\n            emit Transfer(msg.sender, to, value);\n            return true;\n        }\n\n        function approve(address spender, uint value) public returns(bool sucess) {\n            balances[spender] = value;\n            emit Approval(msg.sender, spender, value);\n            return true;\n        }\n\n        function transferFrom(address from, address to, uint256 value) public returns(bool sucess) {\n            require(value <= balances[from]);\n            require(value <= allowances[from][msg.sender]);\n            balances[from] -= value;\n            balances[to] += value;\n            allowances[from][msg.sender] -= value;\n            emit Transfer(from, to, value);\n            return true;\n        }\n}",
  "sourcePath": "/Users/maikonweberdecarvalho/Desktop/Bnb/contracts/soulofEnemy.sol",
  "compiler": {
    "name": "solc",
    "version": "0.8.10+commit.fc410830.Emscripten.clang"
  },
  "schemaVersion": "3.4.4",
  "updatedAt": "2021-12-17T20:13:08.009Z",
  "networkType": "ethereum",
  "devdoc": {
    "kind": "dev",
    "methods": {},
    "version": 1
  },
  "userdoc": {
    "kind": "user",
    "methods": {},
    "version": 1
  }
}